{
  "contractName": "narrativeChainy",
  "abi": [
    {
      "constant": false,
      "inputs": [
        {
          "name": "_address",
          "type": "address"
        },
        {
          "name": "_value",
          "type": "bool"
        }
      ],
      "name": "setServiceAccount",
      "outputs": [],
      "payable": false,
      "stateMutability": "nonpayable",
      "type": "function"
    },
    {
      "constant": true,
      "inputs": [
        {
          "name": "_code",
          "type": "uint256"
        }
      ],
      "name": "getChainyAll",
      "outputs": [
        {
          "name": "",
          "type": "uint256"
        },
        {
          "name": "",
          "type": "uint256"
        },
        {
          "name": "",
          "type": "string"
        },
        {
          "name": "",
          "type": "address"
        }
      ],
      "payable": false,
      "stateMutability": "view",
      "type": "function"
    },
    {
      "constant": true,
      "inputs": [
        {
          "name": "_code",
          "type": "uint256"
        }
      ],
      "name": "getChainySender",
      "outputs": [
        {
          "name": "",
          "type": "address"
        }
      ],
      "payable": false,
      "stateMutability": "view",
      "type": "function"
    },
    {
      "constant": true,
      "inputs": [],
      "name": "totalNarrativeLength",
      "outputs": [
        {
          "name": "",
          "type": "uint256"
        }
      ],
      "payable": false,
      "stateMutability": "view",
      "type": "function"
    },
    {
      "constant": false,
      "inputs": [],
      "name": "getNarrativeLength",
      "outputs": [
        {
          "name": "",
          "type": "uint256"
        }
      ],
      "payable": false,
      "stateMutability": "nonpayable",
      "type": "function"
    },
    {
      "constant": false,
      "inputs": [],
      "name": "releaseFunds",
      "outputs": [],
      "payable": false,
      "stateMutability": "nonpayable",
      "type": "function"
    },
    {
      "constant": false,
      "inputs": [
        {
          "name": "_address",
          "type": "address"
        }
      ],
      "name": "setReceiverAddress",
      "outputs": [],
      "payable": false,
      "stateMutability": "nonpayable",
      "type": "function"
    },
    {
      "constant": true,
      "inputs": [],
      "name": "owner",
      "outputs": [
        {
          "name": "",
          "type": "address"
        }
      ],
      "payable": false,
      "stateMutability": "view",
      "type": "function"
    },
    {
      "constant": true,
      "inputs": [
        {
          "name": "_code",
          "type": "uint256"
        }
      ],
      "name": "getChainyTimestamp",
      "outputs": [
        {
          "name": "",
          "type": "uint256"
        }
      ],
      "payable": false,
      "stateMutability": "view",
      "type": "function"
    },
    {
      "constant": true,
      "inputs": [
        {
          "name": "_code",
          "type": "uint256"
        }
      ],
      "name": "getChainyData",
      "outputs": [
        {
          "name": "",
          "type": "string"
        }
      ],
      "payable": false,
      "stateMutability": "view",
      "type": "function"
    },
    {
      "constant": false,
      "inputs": [
        {
          "name": "_narrative",
          "type": "string"
        },
        {
          "name": "_type",
          "type": "uint256"
        }
      ],
      "name": "addChainyData",
      "outputs": [],
      "payable": false,
      "stateMutability": "nonpayable",
      "type": "function"
    },
    {
      "constant": false,
      "inputs": [
        {
          "name": "newOwner",
          "type": "address"
        }
      ],
      "name": "transferOwnership",
      "outputs": [],
      "payable": false,
      "stateMutability": "nonpayable",
      "type": "function"
    },
    {
      "inputs": [],
      "payable": false,
      "stateMutability": "nonpayable",
      "type": "constructor"
    },
    {
      "anonymous": false,
      "inputs": [
        {
          "indexed": false,
          "name": "item",
          "type": "uint256"
        },
        {
          "indexed": false,
          "name": "storyType",
          "type": "uint256"
        },
        {
          "indexed": false,
          "name": "timestamp",
          "type": "uint256"
        },
        {
          "indexed": false,
          "name": "narrative",
          "type": "string"
        },
        {
          "indexed": false,
          "name": "sender",
          "type": "address"
        }
      ],
      "name": "narrativeAdded",
      "type": "event"
    }
  ],
  "bytecode": "0x6060604052341561000f57600080fd5b336000806101000a81548173ffffffffffffffffffffffffffffffffffffffff021916908373ffffffffffffffffffffffffffffffffffffffff1602179055506100a26040805190810160405280600381526020017f6665650000000000000000000000000000000000000000000000000000000000815250600061010464010000000002610dfd176401000000009004565b6100f76040805190810160405280600b81526020017f626c6f636b6f6666736574000000000000000000000000000000000000000000815250621e848061010464010000000002610dfd176401000000009004565b60006004819055506101d3565b6000809054906101000a900473ffffffffffffffffffffffffffffffffffffffff1673ffffffffffffffffffffffffffffffffffffffff163373ffffffffffffffffffffffffffffffffffffffff1614151561015f57600080fd5b806001836040518082805190602001908083835b6020831015156101985780518252602082019150602081019050602083039250610173565b6001836020036101000a0380198251168184511680821785525050505050509050019150509081526020016040518091039020819055505050565b610ef8806101e26000396000f3006060604052600436106100ba576000357c0100000000000000000000000000000000000000000000000000000000900463ffffffff16806309d2d0b9146100bf5780630bd2dde1146101035780630d55b78a146101e057806328693eb7146102435780633e165cb31461026c57806369d89575146102955780638279c7db146102aa5780638da5cb5b146102e3578063941f0e6114610338578063cf2197b21461036f578063f1ca582b1461040b578063f2fde38b14610442575b600080fd5b34156100ca57600080fd5b610101600480803573ffffffffffffffffffffffffffffffffffffffff16906020019091908035151590602001909190505061047b565b005b341561010e57600080fd5b6101246004808035906020019091905050610531565b60405180858152602001848152602001806020018373ffffffffffffffffffffffffffffffffffffffff1673ffffffffffffffffffffffffffffffffffffffff168152602001828103825284818151815260200191508051906020019080838360005b838110156101a2578082015181840152602081019050610187565b50505050905090810190601f1680156101cf5780820380516001836020036101000a031916815260200191505b509550505050505060405180910390f35b34156101eb57600080fd5b6102016004808035906020019091905050610664565b604051808273ffffffffffffffffffffffffffffffffffffffff1673ffffffffffffffffffffffffffffffffffffffff16815260200191505060405180910390f35b341561024e57600080fd5b6102566106a4565b6040518082815260200191505060405180910390f35b341561027757600080fd5b61027f6106aa565b6040518082815260200191505060405180910390f35b34156102a057600080fd5b6102a86106b4565b005b34156102b557600080fd5b6102e1600480803573ffffffffffffffffffffffffffffffffffffffff16906020019091905050610789565b005b34156102ee57600080fd5b6102f6610828565b604051808273ffffffffffffffffffffffffffffffffffffffff1673ffffffffffffffffffffffffffffffffffffffff16815260200191505060405180910390f35b341561034357600080fd5b610359600480803590602001909190505061084d565b6040518082815260200191505060405180910390f35b341561037a57600080fd5b610390600480803590602001909190505061086d565b6040518080602001828103825283818151815260200191508051906020019080838360005b838110156103d05780820151818401526020810190506103b5565b50505050905090810190601f1680156103fd5780820380516001836020036101000a031916815260200191505b509250505060405180910390f35b341561041657600080fd5b6104406004808035906020019082018035906020019190919290803590602001909190505061092b565b005b341561044d57600080fd5b610479600480803573ffffffffffffffffffffffffffffffffffffffff16906020019091905050610b1a565b005b6000809054906101000a900473ffffffffffffffffffffffffffffffffffffffff1673ffffffffffffffffffffffffffffffffffffffff163373ffffffffffffffffffffffffffffffffffffffff161415156104d657600080fd5b80600260008473ffffffffffffffffffffffffffffffffffffffff1673ffffffffffffffffffffffffffffffffffffffff16815260200190815260200160002060006101000a81548160ff0219169083151502179055505050565b60008061053c610d44565b600060056000868152602001908152602001600020600001546005600087815260200190815260200160002060010154600560008881526020019081526020016000206002016005600089815260200190815260200160002060030160009054906101000a900473ffffffffffffffffffffffffffffffffffffffff16818054600181600116156101000203166002900480601f01602080910402602001604051908101604052809291908181526020018280546001816001161561010002031660029004801561064e5780601f106106235761010080835404028352916020019161064e565b820191906000526020600020905b81548152906001019060200180831161063157829003601f168201915b5050505050915093509350935093509193509193565b60006005600083815260200190815260200160002060030160009054906101000a900473ffffffffffffffffffffffffffffffffffffffff169050919050565b60045481565b6000600454905090565b6000809054906101000a900473ffffffffffffffffffffffffffffffffffffffff1673ffffffffffffffffffffffffffffffffffffffff163373ffffffffffffffffffffffffffffffffffffffff1614151561070f57600080fd5b6000809054906101000a900473ffffffffffffffffffffffffffffffffffffffff1673ffffffffffffffffffffffffffffffffffffffff166108fc3073ffffffffffffffffffffffffffffffffffffffff16319081150290604051600060405180830381858888f19350505050151561078757600080fd5b565b6000809054906101000a900473ffffffffffffffffffffffffffffffffffffffff1673ffffffffffffffffffffffffffffffffffffffff163373ffffffffffffffffffffffffffffffffffffffff161415156107e457600080fd5b80600360006101000a81548173ffffffffffffffffffffffffffffffffffffffff021916908373ffffffffffffffffffffffffffffffffffffffff16021790555050565b6000809054906101000a900473ffffffffffffffffffffffffffffffffffffffff1681565b600060056000838152602001908152602001600020600001549050919050565b610875610d44565b600560008381526020019081526020016000206002018054600181600116156101000203166002900480601f01602080910402602001604051908101604052809291908181526020018280546001816001161561010002031660029004801561091f5780601f106108f45761010080835404028352916020019161091f565b820191906000526020600020905b81548152906001019060200180831161090257829003601f168201915b50505050509050919050565b60006001821015801561093f575060038211155b151561094a57600080fd5b6004549050600061095a8261084d565b111561096557600080fd5b61096d610bb8565b60806040519081016040528042815260200183815260200185858080601f01602080910402602001604051908101604052809392919081815260200183838082843782019150505050505081526020013273ffffffffffffffffffffffffffffffffffffffff168152506005600083815260200190815260200160002060008201518160000155602082015181600101556040820151816002019080519060200190610a1a929190610d58565b5060608201518160030160006101000a81548173ffffffffffffffffffffffffffffffffffffffff021916908373ffffffffffffffffffffffffffffffffffffffff1602179055509050506004600081548092919060010191905055507f02e7a8d6a5914ba7c698d4768fb2c2d9ce3c762bc3a8bbe28ed1e8cdfa070d4281834287873260405180878152602001868152602001858152602001806020018373ffffffffffffffffffffffffffffffffffffffff1673ffffffffffffffffffffffffffffffffffffffff1681526020018281038252858582818152602001925080828437820191505097505050505050505060405180910390a150505050565b6000809054906101000a900473ffffffffffffffffffffffffffffffffffffffff1673ffffffffffffffffffffffffffffffffffffffff163373ffffffffffffffffffffffffffffffffffffffff16141515610b7557600080fd5b806000806101000a81548173ffffffffffffffffffffffffffffffffffffffff021916908373ffffffffffffffffffffffffffffffffffffffff16021790555050565b6000610bf86040805190810160405280600381526020017f6665650000000000000000000000000000000000000000000000000000000000815250610ccf565b9050600260003373ffffffffffffffffffffffffffffffffffffffff1673ffffffffffffffffffffffffffffffffffffffff16815260200190815260200160002060009054906101000a900460ff1680610c525750600081145b15610c5c57610ccc565b80341015610c6957600080fd5b600360009054906101000a900473ffffffffffffffffffffffffffffffffffffffff1673ffffffffffffffffffffffffffffffffffffffff166108fc829081150290604051600060405180830381858888f193505050501515610ccb57600080fd5b5b50565b60006001826040518082805190602001908083835b602083101515610d095780518252602082019150602081019050602083039250610ce4565b6001836020036101000a0380198251168184511680821785525050505050509050019150509081526020016040518091039020549050919050565b602060405190810160405280600081525090565b828054600181600116156101000203166002900490600052602060002090601f016020900481019282601f10610d9957805160ff1916838001178555610dc7565b82800160010185558215610dc7579182015b82811115610dc6578251825591602001919060010190610dab565b5b509050610dd49190610dd8565b5090565b610dfa91905b80821115610df6576000816000905550600101610dde565b5090565b90565b6000809054906101000a900473ffffffffffffffffffffffffffffffffffffffff1673ffffffffffffffffffffffffffffffffffffffff163373ffffffffffffffffffffffffffffffffffffffff16141515610e5857600080fd5b806001836040518082805190602001908083835b602083101515610e915780518252602082019150602081019050602083039250610e6c565b6001836020036101000a03801982511681845116808217855250505050505090500191505090815260200160405180910390208190555050505600a165627a7a72305820b32d97080f42f5abb44b1c96070fe3e634f16612d9c29a79d58a6948301b278e0029",
  "source": " pragma solidity ^0.4.16;\n import \"./owned.sol\";\n\n/**\n * This contract is a heavily slimmed down version of Chainy.sol\n * \n * It saves string information along with some basic metadata to the \n * ETH blockchain.\n * \n * */\n\n/**\n * From: Chainy.sol\n *\n * Copyright 2016 Everex https://everex.io\n *\n * Licensed under the Apache License, Version 2.0 (the \"License\");\n * you may not use this file except in compliance with the License.\n * You may obtain a copy of the License at\n *\n *     http://www.apache.org/licenses/LICENSE-2.0\n *\n * Unless required by applicable law or agreed to in writing, software\n * distributed under the License is distributed on an \"AS IS\" BASIS,\n * WITHOUT WARRANTIES OR CONDITIONS OF ANY KIND, either express or implied.\n * See the License for the specific language governing permissions and\n * limitations under the License.\n */\n\n\ncontract narrativeChainy is owned {\n    \n    // Configuration\n    mapping(string => uint256) private chainyConfig;\n\n    // Service accounts\n    mapping (address => bool) private srvAccount;\n\n    // Fee receiver\n    address private receiverAddress;\n    \n    //Legth of narrative\n    uint256 public totalNarrativeLength;\n\n    // int storyType:\n    // 1 = Narrative,\n    // 2 = event\n    // 3 = Image \n    \n    struct data {uint256 timestamp; uint256 storyType; string narrative; address sender;}\n    mapping (uint256 => data) private chainy;\n\n    event narrativeAdded(uint256 item, uint256 storyType, uint256 timestamp, string narrative, address sender);\n\n    // Constructor\n    function narrativeChainy(){\n        setConfig(\"fee\", 0);\n        // change the block offset to 1000000 to use contract in testnet\n        setConfig(\"blockoffset\", 2000000);\n        totalNarrativeLength = 0;\n       \n    }\n\n    // Sets configuration option\n    function setConfig(string _key, uint256 _value) internal onlyOwner {\n        chainyConfig[_key] = _value;\n    }\n\n    // Returns configuration option\n    function getConfig(string _key) internal constant returns (uint256 _value) {\n        return chainyConfig[_key];\n    }\n\n    // Add/Remove service account\n    function setServiceAccount(address _address, bool _value) external onlyOwner {\n        srvAccount[_address] = _value;\n    }\n\n    // Set receiver address\n    function setReceiverAddress(address _address) external onlyOwner {\n        receiverAddress = _address;\n    }\n\n    // Send all ether back to owner\n    function releaseFunds() external onlyOwner {\n        if(!owner.send(this.balance)) throw;\n    }\n\n    // Add record\n    function addChainyData(string _narrative, uint256 _type) external {\n        //checkFormat(json);\n        // TODO: Check _narrative input \n        require(_type >= 1 && _type <=3);\n        uint256 _item = totalNarrativeLength;\n       \n        // Checks if the record exist\n        if (getChainyTimestamp(_item) > 0) throw;\n\n        //Fee check.\n        processFee();\n        \n        chainy[_item] = data({\n            timestamp: block.timestamp,\n            storyType: _type,\n            // imageLink : //Sting\n            narrative: _narrative,\n            sender: tx.origin\n        });\n\n        totalNarrativeLength++;\n        \n        // Fire event\n        narrativeAdded(_item, _type, block.timestamp, _narrative, tx.origin);\n    }\n\n    // Get record timestamp\n    function getChainyTimestamp(uint _code) public constant returns (uint256) {\n        return chainy[_code].timestamp;\n    }\n\n    // Get record JSON\n    function getChainyData(uint _code) external constant returns (string) {\n        return chainy[_code].narrative;\n    }\n\n    // Get record sender\n    function getChainySender(uint _code) external constant returns (address) {\n        return chainy[_code].sender;\n    }\n\n    // Get all records\n    // timestamp: block.timestamp, storyType: _type, narrative: _narrative, sender: tx.origin\n    // uint256 timestamp; uint256 storyType; string narrative; address sender;\n    function getChainyAll(uint _code) external constant returns (uint256, uint256, string, address) {\n        return (chainy[_code].timestamp, chainy[_code].storyType, chainy[_code].narrative, chainy[_code].sender);\n    }\n\n    // Checks if enough fee provided\n    function processFee() internal {\n        var fee = getConfig(\"fee\");\n        if (srvAccount[msg.sender] || (fee == 0)) return;\n\n        if (msg.value < fee)\n            throw;\n        else\n            if (!receiverAddress.send(fee)) throw;\n    }\n\n     function getNarrativeLength() external returns (uint256){\n        return totalNarrativeLength;\n    }\n    // GET narrative length.. why you deleted ?\n\n\n}\n",
  "sourcePath": "/Users/tkobialka/AMI_BANNER/truffle-box-dl/contracts/narrativeChainy.sol",
  "compiler": {
    "name": "solc",
    "version": "0.4.18+commit.9cf6e910.Emscripten.clang"
  },
  "schemaVersion": "1.0.1",
  "updatedAt": "2018-04-19T17:22:29.067Z"
}